{
  "_format": "hh-sol-artifact-1",
  "contractName": "ObscurAFinalPass",
  "sourceName": "contracts/factoryNFT.sol",
  "abi": [
    {
      "inputs": [],
      "stateMutability": "nonpayable",
      "type": "constructor"
    },
    {
      "anonymous": false,
      "inputs": [
        {
          "indexed": true,
          "internalType": "address",
          "name": "owner",
          "type": "address"
        },
        {
          "indexed": true,
          "internalType": "address",
          "name": "approved",
          "type": "address"
        },
        {
          "indexed": true,
          "internalType": "uint256",
          "name": "tokenId",
          "type": "uint256"
        }
      ],
      "name": "Approval",
      "type": "event"
    },
    {
      "anonymous": false,
      "inputs": [
        {
          "indexed": true,
          "internalType": "address",
          "name": "owner",
          "type": "address"
        },
        {
          "indexed": true,
          "internalType": "address",
          "name": "operator",
          "type": "address"
        },
        {
          "indexed": false,
          "internalType": "bool",
          "name": "approved",
          "type": "bool"
        }
      ],
      "name": "ApprovalForAll",
      "type": "event"
    },
    {
      "anonymous": false,
      "inputs": [
        {
          "indexed": true,
          "internalType": "address",
          "name": "previousOwner",
          "type": "address"
        },
        {
          "indexed": true,
          "internalType": "address",
          "name": "newOwner",
          "type": "address"
        }
      ],
      "name": "OwnershipTransferred",
      "type": "event"
    },
    {
      "anonymous": false,
      "inputs": [
        {
          "indexed": true,
          "internalType": "address",
          "name": "from",
          "type": "address"
        },
        {
          "indexed": true,
          "internalType": "address",
          "name": "to",
          "type": "address"
        },
        {
          "indexed": true,
          "internalType": "uint256",
          "name": "tokenId",
          "type": "uint256"
        }
      ],
      "name": "Transfer",
      "type": "event"
    },
    {
      "inputs": [
        {
          "internalType": "address",
          "name": "to",
          "type": "address"
        },
        {
          "internalType": "uint256",
          "name": "tokenId",
          "type": "uint256"
        }
      ],
      "name": "approve",
      "outputs": [],
      "stateMutability": "nonpayable",
      "type": "function"
    },
    {
      "inputs": [
        {
          "internalType": "address",
          "name": "owner",
          "type": "address"
        }
      ],
      "name": "balanceOf",
      "outputs": [
        {
          "internalType": "uint256",
          "name": "",
          "type": "uint256"
        }
      ],
      "stateMutability": "view",
      "type": "function"
    },
    {
      "inputs": [
        {
          "internalType": "uint256",
          "name": "tokenId",
          "type": "uint256"
        }
      ],
      "name": "getApproved",
      "outputs": [
        {
          "internalType": "address",
          "name": "",
          "type": "address"
        }
      ],
      "stateMutability": "view",
      "type": "function"
    },
    {
      "inputs": [
        {
          "internalType": "address",
          "name": "owner",
          "type": "address"
        },
        {
          "internalType": "address",
          "name": "operator",
          "type": "address"
        }
      ],
      "name": "isApprovedForAll",
      "outputs": [
        {
          "internalType": "bool",
          "name": "",
          "type": "bool"
        }
      ],
      "stateMutability": "view",
      "type": "function"
    },
    {
      "inputs": [
        {
          "internalType": "string",
          "name": "tokenURI",
          "type": "string"
        },
        {
          "internalType": "address",
          "name": "_to",
          "type": "address"
        }
      ],
      "name": "mintNFT",
      "outputs": [
        {
          "internalType": "uint256",
          "name": "",
          "type": "uint256"
        }
      ],
      "stateMutability": "nonpayable",
      "type": "function"
    },
    {
      "inputs": [],
      "name": "name",
      "outputs": [
        {
          "internalType": "string",
          "name": "",
          "type": "string"
        }
      ],
      "stateMutability": "view",
      "type": "function"
    },
    {
      "inputs": [],
      "name": "owner",
      "outputs": [
        {
          "internalType": "address",
          "name": "",
          "type": "address"
        }
      ],
      "stateMutability": "view",
      "type": "function"
    },
    {
      "inputs": [
        {
          "internalType": "uint256",
          "name": "tokenId",
          "type": "uint256"
        }
      ],
      "name": "ownerOf",
      "outputs": [
        {
          "internalType": "address",
          "name": "",
          "type": "address"
        }
      ],
      "stateMutability": "view",
      "type": "function"
    },
    {
      "inputs": [],
      "name": "renounceOwnership",
      "outputs": [],
      "stateMutability": "nonpayable",
      "type": "function"
    },
    {
      "inputs": [
        {
          "internalType": "address",
          "name": "from",
          "type": "address"
        },
        {
          "internalType": "address",
          "name": "to",
          "type": "address"
        },
        {
          "internalType": "uint256",
          "name": "tokenId",
          "type": "uint256"
        }
      ],
      "name": "safeTransferFrom",
      "outputs": [],
      "stateMutability": "nonpayable",
      "type": "function"
    },
    {
      "inputs": [
        {
          "internalType": "address",
          "name": "from",
          "type": "address"
        },
        {
          "internalType": "address",
          "name": "to",
          "type": "address"
        },
        {
          "internalType": "uint256",
          "name": "tokenId",
          "type": "uint256"
        },
        {
          "internalType": "bytes",
          "name": "_data",
          "type": "bytes"
        }
      ],
      "name": "safeTransferFrom",
      "outputs": [],
      "stateMutability": "nonpayable",
      "type": "function"
    },
    {
      "inputs": [
        {
          "internalType": "address",
          "name": "operator",
          "type": "address"
        },
        {
          "internalType": "bool",
          "name": "approved",
          "type": "bool"
        }
      ],
      "name": "setApprovalForAll",
      "outputs": [],
      "stateMutability": "nonpayable",
      "type": "function"
    },
    {
      "inputs": [
        {
          "internalType": "bytes4",
          "name": "interfaceId",
          "type": "bytes4"
        }
      ],
      "name": "supportsInterface",
      "outputs": [
        {
          "internalType": "bool",
          "name": "",
          "type": "bool"
        }
      ],
      "stateMutability": "view",
      "type": "function"
    },
    {
      "inputs": [],
      "name": "symbol",
      "outputs": [
        {
          "internalType": "string",
          "name": "",
          "type": "string"
        }
      ],
      "stateMutability": "view",
      "type": "function"
    },
    {
      "inputs": [
        {
          "internalType": "uint256",
          "name": "tokenId",
          "type": "uint256"
        }
      ],
      "name": "tokenURI",
      "outputs": [
        {
          "internalType": "string",
          "name": "",
          "type": "string"
        }
      ],
      "stateMutability": "view",
      "type": "function"
    },
    {
      "inputs": [
        {
          "internalType": "address",
          "name": "from",
          "type": "address"
        },
        {
          "internalType": "address",
          "name": "to",
          "type": "address"
        },
        {
          "internalType": "uint256",
          "name": "tokenId",
          "type": "uint256"
        }
      ],
      "name": "transferFrom",
      "outputs": [],
      "stateMutability": "nonpayable",
      "type": "function"
    },
    {
      "inputs": [
        {
          "internalType": "address",
          "name": "newOwner",
          "type": "address"
        }
      ],
      "name": "transferOwnership",
      "outputs": [],
      "stateMutability": "nonpayable",
      "type": "function"
    }
  ],
  "bytecode": "0x608060405260036009553480156200001657600080fd5b506040518060400160405280600c81526020017f4f62736375724139204e465400000000000000000000000000000000000000008152506040518060400160405280600581526020017f4f4253413900000000000000000000000000000000000000000000000000000081525081600090805190602001906200009b929190620001ab565b508060019080519060200190620000b4929190620001ab565b505050620000d7620000cb620000dd60201b60201c565b620000e560201b60201c565b620002c0565b600033905090565b6000600760009054906101000a900473ffffffffffffffffffffffffffffffffffffffff16905081600760006101000a81548173ffffffffffffffffffffffffffffffffffffffff021916908373ffffffffffffffffffffffffffffffffffffffff1602179055508173ffffffffffffffffffffffffffffffffffffffff168173ffffffffffffffffffffffffffffffffffffffff167f8be0079c531659141344cd1fd0a4f28419497f9722a3daafe3b4186f6b6457e060405160405180910390a35050565b828054620001b9906200025b565b90600052602060002090601f016020900481019282620001dd576000855562000229565b82601f10620001f857805160ff191683800117855562000229565b8280016001018555821562000229579182015b82811115620002285782518255916020019190600101906200020b565b5b5090506200023891906200023c565b5090565b5b80821115620002575760008160009055506001016200023d565b5090565b600060028204905060018216806200027457607f821691505b602082108114156200028b576200028a62000291565b5b50919050565b7f4e487b7100000000000000000000000000000000000000000000000000000000600052602260045260246000fd5b6130a380620002d06000396000f3fe608060405234801561001057600080fd5b506004361061010b5760003560e01c806370a08231116100a2578063a22cb46511610071578063a22cb465146102b8578063b88d4fde146102d4578063c87b56dd146102f0578063e985e9c514610320578063f2fde38b146103505761010b565b806370a0823114610242578063715018a6146102725780638da5cb5b1461027c57806395d89b411461029a5761010b565b8063095ea7b3116100de578063095ea7b3146101be57806323b872dd146101da57806342842e0e146101f65780636352211e146102125761010b565b806301ffc9a71461011057806304f322791461014057806306fdde0314610170578063081812fc1461018e575b600080fd5b61012a60048036038101906101259190611f92565b61036c565b6040516101379190612455565b60405180910390f35b61015a60048036038101906101559190611fe4565b61044e565b60405161016791906126f2565b60405180910390f35b610178610550565b6040516101859190612470565b60405180910390f35b6101a860048036038101906101a39190612038565b6105e2565b6040516101b591906123ee565b60405180910390f35b6101d860048036038101906101d39190611f56565b610667565b005b6101f460048036038101906101ef9190611e50565b61077f565b005b610210600480360381019061020b9190611e50565b6107df565b005b61022c60048036038101906102279190612038565b6107ff565b60405161023991906123ee565b60405180910390f35b61025c60048036038101906102579190611deb565b6108b1565b60405161026991906126f2565b60405180910390f35b61027a610969565b005b6102846109f1565b60405161029191906123ee565b60405180910390f35b6102a2610a1b565b6040516102af9190612470565b60405180910390f35b6102d260048036038101906102cd9190611f1a565b610aad565b005b6102ee60048036038101906102e99190611e9f565b610ac3565b005b61030a60048036038101906103059190612038565b610b25565b6040516103179190612470565b60405180910390f35b61033a60048036038101906103359190611e14565b610c77565b6040516103479190612455565b60405180910390f35b61036a60048036038101906103659190611deb565b610d0b565b005b60007f80ac58cd000000000000000000000000000000000000000000000000000000007bffffffffffffffffffffffffffffffffffffffffffffffffffffffff1916827bffffffffffffffffffffffffffffffffffffffffffffffffffffffff1916148061043757507f5b5e139f000000000000000000000000000000000000000000000000000000007bffffffffffffffffffffffffffffffffffffffffffffffffffffffff1916827bffffffffffffffffffffffffffffffffffffffffffffffffffffffff1916145b80610447575061044682610e03565b5b9050919050565b6000610458610e6d565b73ffffffffffffffffffffffffffffffffffffffff166104766109f1565b73ffffffffffffffffffffffffffffffffffffffff16146104cc576040517f08c379a00000000000000000000000000000000000000000000000000000000081526004016104c390612652565b60405180910390fd5b6009546104d96008610e75565b111561051a576040517f08c379a000000000000000000000000000000000000000000000000000000000815260040161051190612692565b60405180910390fd5b6105246008610e83565b60006105306008610e75565b905061053c8382610e99565b6105468185611073565b8091505092915050565b60606000805461055f90612948565b80601f016020809104026020016040519081016040528092919081815260200182805461058b90612948565b80156105d85780601f106105ad576101008083540402835291602001916105d8565b820191906000526020600020905b8154815290600101906020018083116105bb57829003601f168201915b5050505050905090565b60006105ed826110e7565b61062c576040517f08c379a000000000000000000000000000000000000000000000000000000000815260040161062390612632565b60405180910390fd5b6004600083815260200190815260200160002060009054906101000a900473ffffffffffffffffffffffffffffffffffffffff169050919050565b6000610672826107ff565b90508073ffffffffffffffffffffffffffffffffffffffff168373ffffffffffffffffffffffffffffffffffffffff1614156106e3576040517f08c379a00000000000000000000000000000000000000000000000000000000081526004016106da906126b2565b60405180910390fd5b8073ffffffffffffffffffffffffffffffffffffffff16610702610e6d565b73ffffffffffffffffffffffffffffffffffffffff16148061073157506107308161072b610e6d565b610c77565b5b610770576040517f08c379a000000000000000000000000000000000000000000000000000000000815260040161076790612572565b60405180910390fd5b61077a8383611153565b505050565b61079061078a610e6d565b8261120c565b6107cf576040517f08c379a00000000000000000000000000000000000000000000000000000000081526004016107c6906126d2565b60405180910390fd5b6107da8383836112ea565b505050565b6107fa83838360405180602001604052806000815250610ac3565b505050565b6000806002600084815260200190815260200160002060009054906101000a900473ffffffffffffffffffffffffffffffffffffffff169050600073ffffffffffffffffffffffffffffffffffffffff168173ffffffffffffffffffffffffffffffffffffffff1614156108a8576040517f08c379a000000000000000000000000000000000000000000000000000000000815260040161089f906125b2565b60405180910390fd5b80915050919050565b60008073ffffffffffffffffffffffffffffffffffffffff168273ffffffffffffffffffffffffffffffffffffffff161415610922576040517f08c379a000000000000000000000000000000000000000000000000000000000815260040161091990612592565b60405180910390fd5b600360008373ffffffffffffffffffffffffffffffffffffffff1673ffffffffffffffffffffffffffffffffffffffff168152602001908152602001600020549050919050565b610971610e6d565b73ffffffffffffffffffffffffffffffffffffffff1661098f6109f1565b73ffffffffffffffffffffffffffffffffffffffff16146109e5576040517f08c379a00000000000000000000000000000000000000000000000000000000081526004016109dc90612652565b60405180910390fd5b6109ef6000611551565b565b6000600760009054906101000a900473ffffffffffffffffffffffffffffffffffffffff16905090565b606060018054610a2a90612948565b80601f0160208091040260200160405190810160405280929190818152602001828054610a5690612948565b8015610aa35780601f10610a7857610100808354040283529160200191610aa3565b820191906000526020600020905b815481529060010190602001808311610a8657829003601f168201915b5050505050905090565b610abf610ab8610e6d565b8383611617565b5050565b610ad4610ace610e6d565b8361120c565b610b13576040517f08c379a0000000000000000000000000000000000000000000000000000000008152600401610b0a906126d2565b60405180910390fd5b610b1f84848484611784565b50505050565b6060610b30826110e7565b610b6f576040517f08c379a0000000000000000000000000000000000000000000000000000000008152600401610b6690612612565b60405180910390fd5b6000600660008481526020019081526020016000208054610b8f90612948565b80601f0160208091040260200160405190810160405280929190818152602001828054610bbb90612948565b8015610c085780601f10610bdd57610100808354040283529160200191610c08565b820191906000526020600020905b815481529060010190602001808311610beb57829003601f168201915b505050505090506000610c196117e0565b9050600081511415610c2f578192505050610c72565b600082511115610c64578082604051602001610c4c9291906123ca565b60405160208183030381529060405292505050610c72565b610c6d846117f7565b925050505b919050565b6000600560008473ffffffffffffffffffffffffffffffffffffffff1673ffffffffffffffffffffffffffffffffffffffff16815260200190815260200160002060008373ffffffffffffffffffffffffffffffffffffffff1673ffffffffffffffffffffffffffffffffffffffff16815260200190815260200160002060009054906101000a900460ff16905092915050565b610d13610e6d565b73ffffffffffffffffffffffffffffffffffffffff16610d316109f1565b73ffffffffffffffffffffffffffffffffffffffff1614610d87576040517f08c379a0000000000000000000000000000000000000000000000000000000008152600401610d7e90612652565b60405180910390fd5b600073ffffffffffffffffffffffffffffffffffffffff168173ffffffffffffffffffffffffffffffffffffffff161415610df7576040517f08c379a0000000000000000000000000000000000000000000000000000000008152600401610dee906124b2565b60405180910390fd5b610e0081611551565b50565b60007f01ffc9a7000000000000000000000000000000000000000000000000000000007bffffffffffffffffffffffffffffffffffffffffffffffffffffffff1916827bffffffffffffffffffffffffffffffffffffffffffffffffffffffff1916149050919050565b600033905090565b600081600001549050919050565b6001816000016000828254019250508190555050565b600073ffffffffffffffffffffffffffffffffffffffff168273ffffffffffffffffffffffffffffffffffffffff161415610f09576040517f08c379a0000000000000000000000000000000000000000000000000000000008152600401610f00906125f2565b60405180910390fd5b610f12816110e7565b15610f52576040517f08c379a0000000000000000000000000000000000000000000000000000000008152600401610f49906124f2565b60405180910390fd5b610f5e6000838361189e565b6001600360008473ffffffffffffffffffffffffffffffffffffffff1673ffffffffffffffffffffffffffffffffffffffff1681526020019081526020016000206000828254610fae91906127d7565b92505081905550816002600083815260200190815260200160002060006101000a81548173ffffffffffffffffffffffffffffffffffffffff021916908373ffffffffffffffffffffffffffffffffffffffff160217905550808273ffffffffffffffffffffffffffffffffffffffff16600073ffffffffffffffffffffffffffffffffffffffff167fddf252ad1be2c89b69c2b068fc378daa952ba7f163c4a11628f55a4df523b3ef60405160405180910390a461106f600083836118a3565b5050565b61107c826110e7565b6110bb576040517f08c379a00000000000000000000000000000000000000000000000000000000081526004016110b2906125d2565b60405180910390fd5b806006600084815260200190815260200160002090805190602001906110e2929190611c0f565b505050565b60008073ffffffffffffffffffffffffffffffffffffffff166002600084815260200190815260200160002060009054906101000a900473ffffffffffffffffffffffffffffffffffffffff1673ffffffffffffffffffffffffffffffffffffffff1614159050919050565b816004600083815260200190815260200160002060006101000a81548173ffffffffffffffffffffffffffffffffffffffff021916908373ffffffffffffffffffffffffffffffffffffffff160217905550808273ffffffffffffffffffffffffffffffffffffffff166111c6836107ff565b73ffffffffffffffffffffffffffffffffffffffff167f8c5be1e5ebec7d5bd14f71427d1e84f3dd0314c0f7b2291e5b200ac8c7c3b92560405160405180910390a45050565b6000611217826110e7565b611256576040517f08c379a000000000000000000000000000000000000000000000000000000000815260040161124d90612552565b60405180910390fd5b6000611261836107ff565b90508073ffffffffffffffffffffffffffffffffffffffff168473ffffffffffffffffffffffffffffffffffffffff1614806112d057508373ffffffffffffffffffffffffffffffffffffffff166112b8846105e2565b73ffffffffffffffffffffffffffffffffffffffff16145b806112e157506112e08185610c77565b5b91505092915050565b8273ffffffffffffffffffffffffffffffffffffffff1661130a826107ff565b73ffffffffffffffffffffffffffffffffffffffff1614611360576040517f08c379a0000000000000000000000000000000000000000000000000000000008152600401611357906124d2565b60405180910390fd5b600073ffffffffffffffffffffffffffffffffffffffff168273ffffffffffffffffffffffffffffffffffffffff1614156113d0576040517f08c379a00000000000000000000000000000000000000000000000000000000081526004016113c790612512565b60405180910390fd5b6113db83838361189e565b6113e6600082611153565b6001600360008573ffffffffffffffffffffffffffffffffffffffff1673ffffffffffffffffffffffffffffffffffffffff1681526020019081526020016000206000828254611436919061285e565b925050819055506001600360008473ffffffffffffffffffffffffffffffffffffffff1673ffffffffffffffffffffffffffffffffffffffff168152602001908152602001600020600082825461148d91906127d7565b92505081905550816002600083815260200190815260200160002060006101000a81548173ffffffffffffffffffffffffffffffffffffffff021916908373ffffffffffffffffffffffffffffffffffffffff160217905550808273ffffffffffffffffffffffffffffffffffffffff168473ffffffffffffffffffffffffffffffffffffffff167fddf252ad1be2c89b69c2b068fc378daa952ba7f163c4a11628f55a4df523b3ef60405160405180910390a461154c8383836118a3565b505050565b6000600760009054906101000a900473ffffffffffffffffffffffffffffffffffffffff16905081600760006101000a81548173ffffffffffffffffffffffffffffffffffffffff021916908373ffffffffffffffffffffffffffffffffffffffff1602179055508173ffffffffffffffffffffffffffffffffffffffff168173ffffffffffffffffffffffffffffffffffffffff167f8be0079c531659141344cd1fd0a4f28419497f9722a3daafe3b4186f6b6457e060405160405180910390a35050565b8173ffffffffffffffffffffffffffffffffffffffff168373ffffffffffffffffffffffffffffffffffffffff161415611686576040517f08c379a000000000000000000000000000000000000000000000000000000000815260040161167d90612532565b60405180910390fd5b80600560008573ffffffffffffffffffffffffffffffffffffffff1673ffffffffffffffffffffffffffffffffffffffff16815260200190815260200160002060008473ffffffffffffffffffffffffffffffffffffffff1673ffffffffffffffffffffffffffffffffffffffff16815260200190815260200160002060006101000a81548160ff0219169083151502179055508173ffffffffffffffffffffffffffffffffffffffff168373ffffffffffffffffffffffffffffffffffffffff167f17307eab39ab6107e8899845ad3d59bd9653f200f220920489ca2b5937696c31836040516117779190612455565b60405180910390a3505050565b61178f8484846112ea565b61179b848484846118a8565b6117da576040517f08c379a00000000000000000000000000000000000000000000000000000000081526004016117d190612492565b60405180910390fd5b50505050565b606060405180602001604052806000815250905090565b6060611802826110e7565b611841576040517f08c379a000000000000000000000000000000000000000000000000000000000815260040161183890612672565b60405180910390fd5b600061184b6117e0565b9050600081511161186b5760405180602001604052806000815250611896565b8061187584611a3f565b6040516020016118869291906123ca565b6040516020818303038152906040525b915050919050565b505050565b505050565b60006118c98473ffffffffffffffffffffffffffffffffffffffff16611bec565b15611a32578373ffffffffffffffffffffffffffffffffffffffff1663150b7a026118f2610e6d565b8786866040518563ffffffff1660e01b81526004016119149493929190612409565b602060405180830381600087803b15801561192e57600080fd5b505af192505050801561195f57506040513d601f19601f8201168201806040525081019061195c9190611fbb565b60015b6119e2573d806000811461198f576040519150601f19603f3d011682016040523d82523d6000602084013e611994565b606091505b506000815114156119da576040517f08c379a00000000000000000000000000000000000000000000000000000000081526004016119d190612492565b60405180910390fd5b805181602001fd5b63150b7a0260e01b7bffffffffffffffffffffffffffffffffffffffffffffffffffffffff1916817bffffffffffffffffffffffffffffffffffffffffffffffffffffffff191614915050611a37565b600190505b949350505050565b60606000821415611a87576040518060400160405280600181526020017f30000000000000000000000000000000000000000000000000000000000000008152509050611be7565b600082905060005b60008214611ab9578080611aa2906129ab565b915050600a82611ab2919061282d565b9150611a8f565b60008167ffffffffffffffff811115611afb577f4e487b7100000000000000000000000000000000000000000000000000000000600052604160045260246000fd5b6040519080825280601f01601f191660200182016040528015611b2d5781602001600182028036833780820191505090505b5090505b60008514611be057600182611b46919061285e565b9150600a85611b5591906129f4565b6030611b6191906127d7565b60f81b818381518110611b9d577f4e487b7100000000000000000000000000000000000000000000000000000000600052603260045260246000fd5b60200101907effffffffffffffffffffffffffffffffffffffffffffffffffffffffffffff1916908160001a905350600a85611bd9919061282d565b9450611b31565b8093505050505b919050565b6000808273ffffffffffffffffffffffffffffffffffffffff163b119050919050565b828054611c1b90612948565b90600052602060002090601f016020900481019282611c3d5760008555611c84565b82601f10611c5657805160ff1916838001178555611c84565b82800160010185558215611c84579182015b82811115611c83578251825591602001919060010190611c68565b5b509050611c919190611c95565b5090565b5b80821115611cae576000816000905550600101611c96565b5090565b6000611cc5611cc084612732565b61270d565b905082815260208101848484011115611cdd57600080fd5b611ce8848285612906565b509392505050565b6000611d03611cfe84612763565b61270d565b905082815260208101848484011115611d1b57600080fd5b611d26848285612906565b509392505050565b600081359050611d3d81613011565b92915050565b600081359050611d5281613028565b92915050565b600081359050611d678161303f565b92915050565b600081519050611d7c8161303f565b92915050565b600082601f830112611d9357600080fd5b8135611da3848260208601611cb2565b91505092915050565b600082601f830112611dbd57600080fd5b8135611dcd848260208601611cf0565b91505092915050565b600081359050611de581613056565b92915050565b600060208284031215611dfd57600080fd5b6000611e0b84828501611d2e565b91505092915050565b60008060408385031215611e2757600080fd5b6000611e3585828601611d2e565b9250506020611e4685828601611d2e565b9150509250929050565b600080600060608486031215611e6557600080fd5b6000611e7386828701611d2e565b9350506020611e8486828701611d2e565b9250506040611e9586828701611dd6565b9150509250925092565b60008060008060808587031215611eb557600080fd5b6000611ec387828801611d2e565b9450506020611ed487828801611d2e565b9350506040611ee587828801611dd6565b925050606085013567ffffffffffffffff811115611f0257600080fd5b611f0e87828801611d82565b91505092959194509250565b60008060408385031215611f2d57600080fd5b6000611f3b85828601611d2e565b9250506020611f4c85828601611d43565b9150509250929050565b60008060408385031215611f6957600080fd5b6000611f7785828601611d2e565b9250506020611f8885828601611dd6565b9150509250929050565b600060208284031215611fa457600080fd5b6000611fb284828501611d58565b91505092915050565b600060208284031215611fcd57600080fd5b6000611fdb84828501611d6d565b91505092915050565b60008060408385031215611ff757600080fd5b600083013567ffffffffffffffff81111561201157600080fd5b61201d85828601611dac565b925050602061202e85828601611d2e565b9150509250929050565b60006020828403121561204a57600080fd5b600061205884828501611dd6565b91505092915050565b61206a81612892565b82525050565b612079816128a4565b82525050565b600061208a82612794565b61209481856127aa565b93506120a4818560208601612915565b6120ad81612ae1565b840191505092915050565b60006120c38261279f565b6120cd81856127bb565b93506120dd818560208601612915565b6120e681612ae1565b840191505092915050565b60006120fc8261279f565b61210681856127cc565b9350612116818560208601612915565b80840191505092915050565b600061212f6032836127bb565b915061213a82612af2565b604082019050919050565b60006121526026836127bb565b915061215d82612b41565b604082019050919050565b60006121756025836127bb565b915061218082612b90565b604082019050919050565b6000612198601c836127bb565b91506121a382612bdf565b602082019050919050565b60006121bb6024836127bb565b91506121c682612c08565b604082019050919050565b60006121de6019836127bb565b91506121e982612c57565b602082019050919050565b6000612201602c836127bb565b915061220c82612c80565b604082019050919050565b60006122246038836127bb565b915061222f82612ccf565b604082019050919050565b6000612247602a836127bb565b915061225282612d1e565b604082019050919050565b600061226a6029836127bb565b915061227582612d6d565b604082019050919050565b600061228d602e836127bb565b915061229882612dbc565b604082019050919050565b60006122b06020836127bb565b91506122bb82612e0b565b602082019050919050565b60006122d36031836127bb565b91506122de82612e34565b604082019050919050565b60006122f6602c836127bb565b915061230182612e83565b604082019050919050565b60006123196020836127bb565b915061232482612ed2565b602082019050919050565b600061233c602f836127bb565b915061234782612efb565b604082019050919050565b600061235f600e836127bb565b915061236a82612f4a565b602082019050919050565b60006123826021836127bb565b915061238d82612f73565b604082019050919050565b60006123a56031836127bb565b91506123b082612fc2565b604082019050919050565b6123c4816128fc565b82525050565b60006123d682856120f1565b91506123e282846120f1565b91508190509392505050565b60006020820190506124036000830184612061565b92915050565b600060808201905061241e6000830187612061565b61242b6020830186612061565b61243860408301856123bb565b818103606083015261244a818461207f565b905095945050505050565b600060208201905061246a6000830184612070565b92915050565b6000602082019050818103600083015261248a81846120b8565b905092915050565b600060208201905081810360008301526124ab81612122565b9050919050565b600060208201905081810360008301526124cb81612145565b9050919050565b600060208201905081810360008301526124eb81612168565b9050919050565b6000602082019050818103600083015261250b8161218b565b9050919050565b6000602082019050818103600083015261252b816121ae565b9050919050565b6000602082019050818103600083015261254b816121d1565b9050919050565b6000602082019050818103600083015261256b816121f4565b9050919050565b6000602082019050818103600083015261258b81612217565b9050919050565b600060208201905081810360008301526125ab8161223a565b9050919050565b600060208201905081810360008301526125cb8161225d565b9050919050565b600060208201905081810360008301526125eb81612280565b9050919050565b6000602082019050818103600083015261260b816122a3565b9050919050565b6000602082019050818103600083015261262b816122c6565b9050919050565b6000602082019050818103600083015261264b816122e9565b9050919050565b6000602082019050818103600083015261266b8161230c565b9050919050565b6000602082019050818103600083015261268b8161232f565b9050919050565b600060208201905081810360008301526126ab81612352565b9050919050565b600060208201905081810360008301526126cb81612375565b9050919050565b600060208201905081810360008301526126eb81612398565b9050919050565b600060208201905061270760008301846123bb565b92915050565b6000612717612728565b9050612723828261297a565b919050565b6000604051905090565b600067ffffffffffffffff82111561274d5761274c612ab2565b5b61275682612ae1565b9050602081019050919050565b600067ffffffffffffffff82111561277e5761277d612ab2565b5b61278782612ae1565b9050602081019050919050565b600081519050919050565b600081519050919050565b600082825260208201905092915050565b600082825260208201905092915050565b600081905092915050565b60006127e2826128fc565b91506127ed836128fc565b9250827fffffffffffffffffffffffffffffffffffffffffffffffffffffffffffffffff0382111561282257612821612a25565b5b828201905092915050565b6000612838826128fc565b9150612843836128fc565b92508261285357612852612a54565b5b828204905092915050565b6000612869826128fc565b9150612874836128fc565b92508282101561288757612886612a25565b5b828203905092915050565b600061289d826128dc565b9050919050565b60008115159050919050565b60007fffffffff0000000000000000000000000000000000000000000000000000000082169050919050565b600073ffffffffffffffffffffffffffffffffffffffff82169050919050565b6000819050919050565b82818337600083830152505050565b60005b83811015612933578082015181840152602081019050612918565b83811115612942576000848401525b50505050565b6000600282049050600182168061296057607f821691505b6020821081141561297457612973612a83565b5b50919050565b61298382612ae1565b810181811067ffffffffffffffff821117156129a2576129a1612ab2565b5b80604052505050565b60006129b6826128fc565b91507fffffffffffffffffffffffffffffffffffffffffffffffffffffffffffffffff8214156129e9576129e8612a25565b5b600182019050919050565b60006129ff826128fc565b9150612a0a836128fc565b925082612a1a57612a19612a54565b5b828206905092915050565b7f4e487b7100000000000000000000000000000000000000000000000000000000600052601160045260246000fd5b7f4e487b7100000000000000000000000000000000000000000000000000000000600052601260045260246000fd5b7f4e487b7100000000000000000000000000000000000000000000000000000000600052602260045260246000fd5b7f4e487b7100000000000000000000000000000000000000000000000000000000600052604160045260246000fd5b6000601f19601f8301169050919050565b7f4552433732313a207472616e7366657220746f206e6f6e20455243373231526560008201527f63656976657220696d706c656d656e7465720000000000000000000000000000602082015250565b7f4f776e61626c653a206e6577206f776e657220697320746865207a65726f206160008201527f6464726573730000000000000000000000000000000000000000000000000000602082015250565b7f4552433732313a207472616e736665722066726f6d20696e636f72726563742060008201527f6f776e6572000000000000000000000000000000000000000000000000000000602082015250565b7f4552433732313a20746f6b656e20616c7265616479206d696e74656400000000600082015250565b7f4552433732313a207472616e7366657220746f20746865207a65726f2061646460008201527f7265737300000000000000000000000000000000000000000000000000000000602082015250565b7f4552433732313a20617070726f766520746f2063616c6c657200000000000000600082015250565b7f4552433732313a206f70657261746f7220717565727920666f72206e6f6e657860008201527f697374656e7420746f6b656e0000000000000000000000000000000000000000602082015250565b7f4552433732313a20617070726f76652063616c6c6572206973206e6f74206f7760008201527f6e6572206e6f7220617070726f76656420666f7220616c6c0000000000000000602082015250565b7f4552433732313a2062616c616e636520717565727920666f7220746865207a6560008201527f726f206164647265737300000000000000000000000000000000000000000000602082015250565b7f4552433732313a206f776e657220717565727920666f72206e6f6e657869737460008201527f656e7420746f6b656e0000000000000000000000000000000000000000000000602082015250565b7f45524337323155524953746f726167653a2055524920736574206f66206e6f6e60008201527f6578697374656e7420746f6b656e000000000000000000000000000000000000602082015250565b7f4552433732313a206d696e7420746f20746865207a65726f2061646472657373600082015250565b7f45524337323155524953746f726167653a2055524920717565727920666f722060008201527f6e6f6e6578697374656e7420746f6b656e000000000000000000000000000000602082015250565b7f4552433732313a20617070726f76656420717565727920666f72206e6f6e657860008201527f697374656e7420746f6b656e0000000000000000000000000000000000000000602082015250565b7f4f776e61626c653a2063616c6c6572206973206e6f7420746865206f776e6572600082015250565b7f4552433732314d657461646174613a2055524920717565727920666f72206e6f60008201527f6e6578697374656e7420746f6b656e0000000000000000000000000000000000602082015250565b7f4d6178204e4654206d696e746564000000000000000000000000000000000000600082015250565b7f4552433732313a20617070726f76616c20746f2063757272656e74206f776e6560008201527f7200000000000000000000000000000000000000000000000000000000000000602082015250565b7f4552433732313a207472616e736665722063616c6c6572206973206e6f74206f60008201527f776e6572206e6f7220617070726f766564000000000000000000000000000000602082015250565b61301a81612892565b811461302557600080fd5b50565b613031816128a4565b811461303c57600080fd5b50565b613048816128b0565b811461305357600080fd5b50565b61305f816128fc565b811461306a57600080fd5b5056fea2646970667358221220695dfcff53f9f300c38029d25ce4c11ba5b2831f4628ae5cc4b45f24af7a2bee64736f6c63430008030033",
  "linkReferences": {},
  "deployedLinkReferences": {}
}